{
  "contractName": "RoyPlayzCoin",
  "abi": [
    {
      "constant": true,
      "inputs": [],
      "name": "totalSupply",
      "outputs": [
        {
          "name": "",
          "type": "uint256"
        }
      ],
      "payable": false,
      "stateMutability": "view",
      "type": "function"
    },
    {
      "inputs": [],
      "payable": false,
      "stateMutability": "nonpayable",
      "type": "constructor"
    }
  ],
  "bytecode": "0x6080604052348015600f57600080fd5b50633b9aca006000819055506098806100296000396000f3fe6080604052600436106039576000357c01000000000000000000000000000000000000000000000000000000009004806318160ddd14603e575b600080fd5b348015604957600080fd5b5060506066565b6040518082815260200191505060405180910390f35b6000548156fea165627a7a7230582027ba7f35ddbd149beb28010064fb6215ee766e916770ced5b438a342325f1f360029",
  "source": "pragma solidity ^0.5.1;\r\n\r\ncontract RoyPlayzCoin {\r\n\tuint256 public totalSupply;\r\n\r\n\tconstructor() public {\r\n\t\ttotalSupply = 1000000000;\r\n\t}\r\n}",
  "sourcePath": "C:\\Users\\roype\\royplayz-coin\\contracts\\RoyPlayzCoin.sol",
  "compiler": {
    "name": "solc",
    "version": "0.5.1+commit.c8a2cb62.Emscripten.clang"
  },
  "schemaVersion": "3.4.16",
  "updatedAt": "2024-05-28T06:48:49.236Z",
  "networkType": "ethereum",
  "devdoc": {
    "methods": {}
  },
  "userdoc": {
    "methods": {}
  }
}